:020000040800F2
:10000000303D0020C9010008211F0008451C0008E0
:10001000751E0008330300082525000800000000B5
:10002000000000000000000000000000251F000884
:100030006B03000800000000231F0008271F0008B2
:10004000E3010008E3010008E3010008E301000800
:10005000E3010008E3010008E3010008E3010008F0
:10006000E3010008E3010008E3010008E3010008E0
:1000700035030008E3010008E3010008E30100087C
:10008000E3010008E3010008E3010008E3010008C0
:10009000E3010008E3010008E3010008E3010008B0
:1000A000E3010008E3010008E3010008E3010008A0
:1000B0008D1F0008E3010008E3010008E3010008C8
:1000C000E3010008E3010008E3010008E301000880
:1000D000E301000819250008E3010008E301000816
:1000E000E3010008E3010008E301000800F002F862
:1000F00000F05AF80AA090E8000C82448344AAF168
:100100000107DA4501D100F04FF8AFF2090EBAE865
:100110000F0013F0010F18BFFB1A43F0010318473B
:10012000242C0000442C00000A444FF0000C10F86E
:10013000013B13F0070408BF10F8014B1D1108BF65
:1001400010F8015B641E05D010F8016B641E01F805
:10015000016BF9D113F0080F1EBF10F8014BAD1C55
:100160000C1B09D16D1E58BF01F801CBFAD505E073
:1001700014F8016B01F8016B6D1EF9D59142D6D3CD
:10018000704700000023002400250026103A28BFF5
:1001900078C1FBD8520728BF30C148BF0B607047F9
:1001A0001FB51FBD10B510BD00F08AF81146FFF74E
:1001B000F7FF02F0C9F900F0A8F803B4FFF7F2FF67
:1001C00003BC00F0AFF80000094880470948004729
:1001D000FEE7FEE7FEE7FEE7FEE7FEE7FEE7FEE7F7
:1001E000FEE7FEE704480549054A064B7047000054
:1001F000891F0008ED00000830370020303D002046
:10020000303900203039002010B5203AC0F00B8082
:10021000B1E81850203AA0E81850B1E81850A0E80A
:100220001850BFF4F5AF5FEA027C24BFB1E8185064
:10023000A0E8185044BF18C918C0BDE810405FEAD4
:10024000827C24BF51F8043B40F8043B08BF704750
:10025000D20728BF31F8023B48BF11F8012B28BF55
:1002600020F8023B48BF00F8012B70474FF0000216
:1002700000B5134694469646203922BFA0E80C509C
:10028000A0E80C50B1F12001BFF4F7AF090728BF77
:10029000A0E80C5048BF0CC05DF804EB890028BFF3
:1002A00040F8042B08BF704748BF20F8022B11F01C
:1002B000804F18BF00F8012B704770477047704798
:1002C000754600F02BF8AE4605006946534620F00F
:1002D0000700854618B020B5FFF784FFBDE8204031
:1002E0004FF000064FF000074FF000084FF0000BF2
:1002F00021F00701AC46ACE8C009ACE8C009ACE8A5
:10030000C009ACE8C0098D46704710B50446AFF38C
:1003100000802046BDE81040FFF74FBF00487047FF
:10032000D036002001491820ABBEFEE726000200AF
:100330007047FEE7014800F0B7B80000B80500209C
:1003400030B590F840500124AC40C56B6C60046837
:1003500063604368102B036803D099600068C26033
:1003600030BD9A600068C16030BD704772B6FEE76C
:100370002DE9F041ADF5007D0C460746FF254FF411
:1003800080782E4642460E496846FFF73DFF4246BA
:100390000C4940A8FFF738FF694640AA06E000BFB5
:1003A00017F8010B68400D5C7540165C641EE4B2E2
:1003B000F6D20DF5007D45EA0620BDE8F08100008B
:1003C000442B0008442C000810B590F8211000229E
:1003D000022905D00421816380F82020012010BD6E
:1003E00001680B6823F00E030B6001680B6823F0B3
:1003F00001030B6090F84030C46B012101FA03F354
:10040000636080F8211080F82020104610BD0000A5
:1004100010B590F821100024022903D00421816333
:1004200001243DE001680A6822F00E020A600168BA
:100430000A6822F001020A601A4A0168914201D159
:10044000012121E0174A1432914201D110211BE011
:10045000144A2832914201D1891515E0114A3C32E3
:10046000914201D189140FE00E4A5032914202D1DB
:100470004FF4803108E00B4A6432914202D14FF4CC
:10048000801101E04FF08071064A083A5160012165
:1004900080F82110002180F82010416B01B18847BD
:1004A000204610BD080002402DE9F05FC16B0C68CA
:1004B00001680B68D0F840C0042202FA0CF2494DE2
:1004C000DFF824A1494E4A4FDFF828B1DFF828E1D0
:1004D00022422CD05A072AD50A68920603D40A6809
:1004E00022F004020A600168A94201D1042219E045
:1004F000514501D1402215E0B14202D14FF4806252
:1005000010E0B94202D14FF480420BE0594502D1CC
:100510004FF4802206E0714502D14FF4800201E0E1
:100520004FF080622F4908394A60C16A3BE04FF0C2
:10053000020808FA0CF818EA040F4FF000094FF00F
:10054000010235D05FEA837832D50B689B0605D46B
:100550000B6823F00A030B6080F821200168A94290
:1005600001D1022219E0514501D1202215E0B1420A
:1005700002D14FF4007210E0B94202D14FF40052A0
:100580000BE0594502D14FF4003206E0714502D12B
:100590004FF4001201E04FF00072124908394A602E
:1005A00080F82090816A00291AD0BDE8F05F0847E2
:1005B000082505FA0CF5254212D01B0710D50B684B
:1005C00023F00E030B6090F84010C36B02FA01F1A8
:1005D0005960826380F8212080F82090016BE2E767
:1005E000BDE8F09F080002401C00024030000240BD
:1005F00044000240580002406C00024030B528B36D
:1006000008C8134914221944B1FBF2F18900C163EF
:1006100010498163022141771A6843F6F0718A43D9
:10062000D0E900142143D0E902452C432143046959
:100630002143446921438469214311431960002106
:100640004163012242770177084630BD012030BD69
:10065000F8FFFDBF0000024070B5044690F820008E
:10066000002501280CD0012084F8200094F8216096
:100670000020012E06D084F820000225284670BDF7
:10068000022070BD022684F82160A06320680668FD
:1006900026F0010606602046FFF752FEE06A0028B9
:1006A0002068016802D041F00E0106E021F004014B
:1006B00001602068016841F00A010160206801685A
:1006C00041F001010160D9E770B5044600F00CF972
:1006D0000546601C02D004480078044400F004F988
:1006E000401BA042FAD370BD040000202DE9F84F52
:1006F000DFF8B891002409F1040A0AF1040B23463B
:100700000F270BF1040EC9E00125A5402A40AA429B
:100710007DD1674ED1F804C0ACEB0608B44532D0A9
:1007200014DCBCF1030F3AD009DCBCF1000F2AD075
:10073000BCF1010F1CD0BCF1020F31D11DE0BCF1A6
:10074000110F17D0BCF1120F2AD119E0B8F5881F8C
:1007500019D006DCB8F5803F15D0B8F5801F1FD141
:1007600011E0B8F5001F0ED0B8F5041F18D10AE04B
:10077000CB6815E0CB681B1D12E0CB6808330FE097
:10078000CB680C330CE08B682BB1012B4FF00803C6
:1007900003D0456104E0042302E0056100E000238A
:1007A000FF2A01D8064601E000F104064FEA84055D
:1007B00001D9A5F12005D6F8008007FA05FC28EA42
:1007C0000C0803FA05F548EA0508C6F800804D68EC
:1007D000ED0062D5374DAE6946F00106AE61AD69F8
:1007E00024F0030605F001050095334D06EB050CDA
:1007F000DCF80850A607360F07FA06F825EA0805C0
:10080000DFF8B880404503D14FF0000817E044E01E
:10081000DFF8AC80404502D14FF001080FE0DFF86F
:10082000A480404502D14FF0020808E0DFF898802C
:10083000404502D14FF0030801E04FF0040808FAE8
:1008400006F848EA0508CCF808804D68D9F8006039
:10085000ED034D4601D5164300E096432E604D68EA
:10086000DAF80060AD03554601D5164300E0964323
:100870002E604D68DBF80060ED025D4601D5164341
:1008800000E096432E604D68DEF80060AD027546CC
:1008900001D5164300E096432E60641C0D682A467D
:1008A000E5407FF431AFBDE8F88F0000000401405F
:1008B000000011100010024000000140000801403B
:1008C000000C01400010014000140140C26821EA00
:1008D00002030A4043EA0241016170470AB1016123
:1008E00070470904FBE7000001488068704700007A
:1008F000040000200248816802781144816070473A
:1009000004000020074810B5016841F010010160A3
:10091000032000F075F80F2000F006F800F024F82E
:10092000002010BD0020024070B50D4D04464FF46C
:100930007A712878B1FBF0F00A490968B1FBF0F050
:1009400000F0ECFA48B9102C07D200222146501EC4
:1009500000F036F800206C6070BD012070BD000012
:1009600004000020100000200C4808B5816941F007
:1009700001018161816901F001010091C16941F0CA
:100980008051C161C06900F0805000900448416806
:1009900021F0E06141F00071416008BD00100240AB
:1009A00000000140002809DB00F01F0201219140F6
:1009B0004009800000F1E020C0F8001170470000FD
:1009C000F0B40E4B1B680C46C3F30223C3F10705BA
:1009D000042D00D90425191D072901D2002300E0A8
:1009E000DB1E012606FA05F1491E214099409E4072
:1009F000761E16403143F0BC01F095BD0CED00E0D1
:100A0000064900F0070208684FF6FF03184040EA65
:100A10000220034A10430860704700000CED00E01C
:100A20000000FA052DE9F0470F46050061D0434E5E
:100A3000306800F00700B84209D2306820F00700A3
:100A400038433060306800F00700B84251D1286860
:100A50003B4C810712D5400703D5606840F4E06045
:100A600060602878000703D5606840F460506060DB
:100A70006068A96820F0F000084360602878C0072B
:100A800028D06868012810D02168022810D0890772
:100A900000292EDA616821F0030101436160FFF74C
:100AA00023FF804641F288390DE021688903EFE792
:100AB0008901EDE7FFF718FFA0EB0801494502D9CE
:100AC0000320BDE8F0876068696800F00C00B0EBB7
:100AD000810FEFD1306800F00700B8420BD93068C1
:100AE00020F0070038433060306800F00700B8425B
:100AF00001D00120E5E72878400705D56068E9685E
:100B000020F4E060084360602878000706D560683C
:100B1000296920F4605040EAC100606000F038F8B4
:100B20006168084AC1F30311515CC8400649086076
:100B300006480068FFF7F8FE0020C2E700200240E8
:100B4000001002402C2B000810000020080000209C
:100B50000448054900684968044AC1F30221515C10
:100B6000C840704710000020001002403C2B0008D5
:100B70000448054900684968044AC1F3C221515C30
:100B8000C840704710000020001002403C2B0008B5
:100B900012A185B00FC98DE80F0014A0144A006897
:100BA00004905168134801F00C03042B10D0082B5B
:100BB0000ED1C1F38343C9031DF803000AD5516860
:100BC00004AAC1F34041515C0A4A5043B0FBF1F022
:100BD00005B0704708494843FAE7000002030405DE
:100BE000060708090A0B0C0D0E0F10100102000079
:100BF0000010024000127A0000093D002DE9F84F74
:100C0000040070D02078C04DC00749D06868C0F398
:100C10008100012807D06868C0F38100022809D14B
:100C20006868C00306D52868800339D56068002845
:100C3000E7D035E06068B0F5803F0BD010B1B0F57B
:100C4000A02F11D0286820F480302860286820F474
:100C5000802002E0286840F480302860606890B10D
:100C6000FFF742FE06460AE0286840F4802028602C
:100C7000F0E700BFFFF738FE801B642873D82868B0
:100C80008003F7D50CE0FFF72FFE064605E000BF16
:100C9000FFF72AFE801B6428F0D828688003F7D469
:100CA00020789A4E80074FF001094FF0000839D59F
:100CB000686810F00C0F07D06868C0F38100022844
:100CC00009D16868C00306D42868800714D5206954
:100CD000012808D110E02069B0B1C6F80090FFF7F4
:100CE00003FE074605E00AE1FFF7FEFDC01B0228F0
:100CF000C4D828688007F7D52868616920F0F80013
:100D000040EAC10028600DE0C6F80080FFF7ECFD66
:100D1000074604E0FFF7E8FDC01B022823D8286837
:100D20008007F7D4207800072CD57948A169D9B17C
:100D3000C0F80090FFF7D8FD074604E0FFF7D4FDA8
:100D4000C01B02280FD8686A8007F7D571484FF496
:100D5000FA510068B0FBF1F0009000BF0098411E0E
:100D60000091FAD20EE080E0C0F80080FFF7BCFDF1
:100D7000074604E0FFF7B8FDC01B022875D8686A73
:100D80008007F7D42078400760D5E8690027C000C5
:100D900008D4E86940F08050E861E869012700F074
:100DA000805000905C480168C90513D401688346EF
:100DB00041F480710160FFF797FD824606E000BFB5
:100DC000FFF792FDA0EB0A0064284ED8DBF8000084
:100DD000C005F5D5E06801280AD008B1052813D070
:100DE000286A20F001002862286A20F0040002E04E
:100DF000286A40F001002862E06841F2883B98B11F
:100E0000FFF772FD82460BE0286A40F0040028627A
:100E1000EEE700BFFFF768FDA0EB0A0159455AD87D
:100E2000286A8007F6D50CE0FFF75EFD824605E0F4
:100E3000FFF75AFDA0EB0A0159454CD8286A8007F4
:100E4000F6D41FB1E86920F08050E861E06988B30A
:100E50006968C1F38101022944D00228C6F8608084
:100E600004D0FFF741FD044638E034E0FFF73CFDD5
:100E7000074604E0FFF738FDC01B02282BD828687E
:100E80008001F7D4206AB0F5803F05D16868A16879
:100E900020F4003008436860D4E908010843696819
:100EA00021F4741108436860C6F86090FFF71CFDD8
:100EB000044606E025E000BFFFF716FD001B0228F0
:100EC00009D828688001F7D51BE000BFFFF70CFDAB
:100ED000001B022802D90320BDE8F88F2868800192
:100EE000F4D40EE00128F7D06868226A00F480315B
:100EF000914204D1616A00F47010884201D001204F
:100F0000EAE70020E8E7000000100240000042424B
:100F100080044242100000200070004010B5401EC6
:100F2000B0F1807F01D3012010BD4FF0E02460615B
:100F30000F21601701F0F7FA0020A061072020615F
:100F4000002010BD7047704710B590F83C20012A72
:100F500022D0012280F83C20CA688C6822F44072BA
:100F600022434C6822F4806222430C6822F400621F
:100F700022430C6922F4805222434C6922F400522D
:100F80002243C969002322F480420A4301684A646B
:100F900080F83C30002010BD022010BD70B590F8E4
:100FA0003C20012A26D0012480F83C40022280F80F
:100FB0003D2003685A689D6822F070060A68324333
:100FC0005A600D4B02689A4208D0B2F1804F05D0AA
:100FD0000A4B9A4202D00A4B9A4204D1496825F042
:100FE00080031943916080F83D40002180F83C1057
:100FF000084670BD022070BD002C01400004004076
:101000000008004010B5040003D094F83D0010B172
:1010100007E0012010BD002084F83C00204600F0CD
:101020001FF8022084F83D00211D206800F0B4FF65
:10103000012084F8460084F83E0084F83F0084F8DC
:10104000400084F8410084F8420084F8430084F8AA
:10105000440084F8450084F83D00002010BD0000E5
:1010600038B5054600681C4A1C4990421FD1886962
:1010700040F40060886188691A4C00F400600090B8
:10108000174820601020606000208021C4E9020120
:10109000490021618900C4E90510E0612046FFF79D
:1010A000ADFA08B1FFF762F96C62656238BDB0F164
:1010B000804FFBD1C86940F00100C861C8690022B7
:1010C00000F00100009011461C20FFF779FCBDE8FC
:1010D00038401C20FFF766BC002C01400010024085
:1010E0001C000240B805002090F83D10012901D0F5
:1010F00001207047022180F83D100168CA6842F063
:101100000102CA6000680B49884208D0B0F1804FE4
:1011100005D00949884202D00849884204D1816833
:1011200001F00701062903D0016841F001010160C7
:1011300000207047002C01400004004000080040DF
:1011400070B5044690F83C00012817D0012584F8BA
:101150003C50022084F83D002068826822F077022B
:1011600022F47F4282600868502830D00DDC2028AD
:101170004DD005DC98B310283BD148E0022070BD6B
:10118000302844D0402834D139E0602828D0702855
:1011900006D0B0F5805F2CD0B0F5005F29D10AE011
:1011A000CB68D1E90121206800F0AEFF206881689A
:1011B00041F0770109E0CB68D1E90121206800F016
:1011C000A3FF2068816841F48041816011E0CA6812
:1011D0004968206801F04CF85021206807E016E0CB
:1011E000CA684968206801F054F86021206800F05E
:1011F00095FF84F83D50002084F83C0070BDCA681B
:101200004968206801F034F840212068EFE722683F
:1012100001461046EBE77047704770B5044600681A
:1012200001694FF00005C943890715D4C168C94356
:10123000890711D4E91E01610120207720688069A7
:101240008007204602D0FFF7E7FF04E000F0C0F877
:10125000204600F04FF9257720680169C943490706
:1012600017D4C168C943490713D46FF00401016161
:10127000022020772068806910F4407F204602D049
:10128000FFF7CAFF04E000F0A3F8204600F032F9AF
:10129000257720680169C943090716D4C168C94385
:1012A000090712D46FF0080101610420207720683B
:1012B000C0698007204602D0FFF7AEFF04E000F0CF
:1012C00087F8204600F016F9257720680169C943A0
:1012D000C90617D4C168C943C90613D46FF01001F9
:1012E0000161082020772068C06910F4407F204603
:1012F00002D0FFF791FF04E000F06AF8204600F00A
:10130000F9F8257720680169C943C90708D1C16880
:10131000C943C90704D1891E0161204600F010FAB3
:1013200020680169C943090609D4C168C94309068F
:1013300005D46FF0800101612046FFF703FE2068AD
:101340000169C943490609D4C168C943490605D49E
:101350006FF040010161204600F032FA2068016917
:10136000C94389060BD4C168C943890607D46FF005
:10137000200101612046BDE87040FFF7E4BD70BD6B
:1013800000B585B0002100910191029103910068A0
:101390000C49884213D10C48816941F004018161F4
:1013A0008069694600F0040004904FF4807000905A
:1013B00002200190032003900448FFF797F905B03D
:1013C00000BD0000002C0140001002400008014058
:1013D000704770B5044690F83C000D4601280AD0CD
:1013E000012084F83C0042B1042A18D0082A2AD0EF
:1013F0000C2A4DD139E0022070BD206800F096FE25
:101400002068816941F0080181612068816921F0CB
:1014100004018161206881692A69114311E0206813
:1014200000F0ACFE2068816941F4006181612068B0
:10143000816921F480618161206881692A6941EABA
:101440000221816124E0206800F0C4FE2068C169A7
:1014500041F00801C1612068C16921F00401C16146
:101460002068C1692A69114311E0206800F0DEFE9E
:101470002068C16941F40061C1612068C16921F43B
:101480008061C1612068C1692A6941EA0221C161A4
:10149000002084F83C0070BD10B5040003D094F81F
:1014A0003D0010B107E0012010BD002084F83C0091
:1014B000204600F01EF8022084F83D00211D20681F
:1014C00000F06AFD012084F8460084F83E0084F8AC
:1014D0003F0084F8400084F8410084F8420084F81A
:1014E000430084F8440084F8450084F83D0000205F
:1014F00010BD70470021014800F0C6B82805002043
:10150000704700002DE9F04117460D0004460CD04D
:10151000042D11D0082D16D094F84100022819D0BE
:1015200094F84100012818D09AE094F83E0002286F
:1015300010D094F83E00F5E794F83F00022809D057
:1015400094F83F00EEE794F84000022802D094F8A7
:101550004000E7E70220BDE8F0810FB9002B7FD102
:101560004349444E444A022045B1042D16D0082D6B
:1015700024D084F841000C2D3AD164E084F83E0078
:10158000606A8162606A3946C662606A0263226884
:10159000606A3432FFF760F8F0BB1FE084F83F0068
:1015A000A06A8162A06A3946C662A06A02632268A4
:1015B000A06A3832FFF750F870BB14E084F840009E
:1015C000E06A8162E06A3946C662E06A02632268C4
:1015D000E06A3C32FFF740F8F0B92FE02068C168BC
:1015E00041F4007103E02068C16841F48061C1608A
:1015F00001222946206800F005FD20492068884224
:1016000003D1426C42F400424264206888420AD00E
:10161000B0F1804F07D000E022E01949884202D0A3
:101620001849884204D1816801F00701062903D0D6
:10163000016841F00101016000208CE72068C16869
:1016400041F40061D3E7206B8162206B3946C662AA
:10165000206B02632268206B4032FEF7FDFF08B169
:10166000012078E72068C16841F48051BFE700009D
:101670001F2000087D200008B5200008002C014034
:10168000000400400008004070B5044600680D00EA
:1016900006D0042D0AD0082D3AD00C2D0DD13DE0F6
:1016A000C16821F40071C160606A04E0C16821F47E
:1016B0008061C160A06AFEF7ABFE00222946206867
:1016C00000F0A0FC1D4B41F2111120688A109842D5
:1016D00009D1036A0B4206D1036A134203D1436C5A
:1016E00023F4004343642068036A0B4206D1016A75
:1016F000114203D1016821F00101016001209DB177
:10170000042D14D0082D15D084F84100002070BDA0
:10171000C16821F40061C160E06ACCE7C16821F4CE
:101720008051C160206BC6E784F83E00EEE784F884
:101730003F00EBE784F84000E8E70000002C0140A0
:101740002DE9F0410068B0F1804F2AD1164C217884
:1017500029B11648002500780F280BD025701249B2
:101760000122891C124800F0E1F9BDE8F04111485E
:10177000FFF7BABC0D4800F07FFB01220E4FD602E6
:1017800031463846FFF7AAF84FF47A7308220B491E
:10179000074800F0FDF9002231463846FFF79EF871
:1017A000DCE7BDE8F0810000000000201F050020FC
:1017B000FC050020700500200008014017050020EE
:1017C000704770477047000010B504460068C16854
:1017D00021F49071C1602068416921F001014161EB
:1017E000206B012804D12068C16821F01001C1607C
:1017F000216848694FF0200243064FF000000FD5E2
:101800004B6923F040034B61A16B49B10948486320
:10181000A06BFEF7FDFD50B1A06B416B884706E061
:10182000E08584F83E2020632046FFF7CBFF0020B0
:1018300010BD0000C722000870470000F8B502681C
:1018400004461068D168536910F00F0F4FF000057F
:1018500053D003F0010601F4907737435FD0C207FD
:1018600005D0CA0503D5226C42F00102226442076A
:1018700005D5DA0703D0226C42F002022264820707
:1018800005D5DA0703D0226C42F004022264020775
:1018900007D501F02002324303D0226C42F0080247
:1018A0002264226C002A34D0800604D5880602D532
:1018B000204600F02BFD20684069216CC0F38010A9
:1018C000090700D430B3204600F008FD20684169C4
:1018D00049061BD5416921F040014161A06BA8B1C7
:1018E00058494163A06BFEF793FD002811D0A06B0F
:1018F000416B01B0BDE8F040084783060FD58B0669
:101900000DD52046BDE8F84000F000BD2046FFF7A9
:1019100093FFF8BD2046FFF78FFF2564F8BD266BC7
:101920002023012E52D1C60650D5CE064ED51068C2
:1019300050680090506940062AD5A16B086840683D
:101940000004000CEAD0A68D8642E7D9E0858869BC
:10195000202818D0D06820F48070D06020684169B9
:1019600021F0010141612068416921F0400141619C
:1019700084F83E3025632068C16821F01001C16001
:10198000A06BFEF721FDA08DE18D401A81B219E018
:10199000A08DE18D401A81B2E08D0028BED00029D3
:1019A000BCD0D06820F49070D0602068426922F0EA
:1019B0000102426184F83E3025632068C26822F04B
:1019C0001002C2602046FFF7FCFEF8BD05062BD5CD
:1019D0000D0629D594F83D002128F6D1A068B0F570
:1019E000805F01D12069B0B1206A411C2162216869
:1019F00000784860E08C401E0004000CE084E4D1D4
:101A00002068C16821F08001C1602068C16841F090
:101A10004001C160F8BD206A0088C0F30800506032
:101A2000206A801C2062E5E74006F3D54806F1D520
:101A3000D168204621F04001D16084F83D3000F0AB
:101A400000F9F8BDB722000870B5040004D094F87E
:101A50003D00002510B106E0012070BD84F83C5027
:101A6000204600F023F8242084F83D002068C16857
:101A700021F40051C160204600F0A4FC20680169F7
:101A800021F4904101612068416921F02A014161FE
:101A90002068C16841F40051C1602564202084F8A9
:101AA0003D0084F83E00002070BD000030B585B0D8
:101AB0000024009401940294039400681849884219
:101AC0002CD11848816941F480418161816901F418
:101AD00080410491816941F0040181618069124D66
:101AE00000F0040004904FF4007000900220019078
:101AF0000320039069462846FEF7F8FD2815CDE936
:101B00000004694628460294FEF7F0FD00221146C3
:101B10002520FEF755FF2520FEF744FF05B030BD18
:101B200000380140001002400008014090F83E30AB
:101B3000202B0ED159B152B190F83C30012B08D076
:101B4000012380F83C300023036300F097BC0120A0
:101B500070470220704700000A4910B588420FD133
:101B600009490A4B08788A781A54401C08700122E7
:101B7000891C0448FFF7DAFF4FF0804100204862DB
:101B800010BD0000FC050020000000201F05002003
:101B90002DE9F843044690F83D001F4616460D46D1
:101BA00020284CD1C5B1BEB194F83C00012846D0E4
:101BB000012084F83C004FF00008C4F84080212048
:101BC00084F83D00FEF790FEA6848146E684A06876
:101BD000B0F5805F03D004E00120BDE8F883206900
:101BE00028B12E465FF0000584F83C800EE0002608
:101BF000FAE78021204600F05CFCA0B9AEB116F8EF
:101C0000010B21684860E08C401EE084E08C4B466C
:101C10004FF0000200970028EBD14FF04001204622
:101C200000F047FC30B10320D7E735F8020BC0F3D2
:101C30000800E6E7202084F83D000020CDE70220E0
:101C4000CBE77047FEE70000094808B5416941F05D
:101C5000010141614069002200F00100009011463D
:101C60000C20FEF7ADFEBDE808400C20FEF79ABE42
:101C7000001002402DE9F04385B000242148009473
:101C8000019402940394816941F01001816181699A
:101C900001F010010491816941F0200181618169A5
:101CA00001F020010491816941F0040181618069A2
:101CB000DFF8548000F004004FF400550490002237
:101CC00029464046FEF70AFEDFF84090AF1000229A
:101CD00039464846FEF702FE009502260125039686
:101CE000CDE9015469464046FEF700FD0097039692
:101CF000CDE9015469464846FEF7F8FC05B0BDE859
:101D0000F083000000100240001001400008014074
:101D100010B596B000240F9410941194129413945B
:101D20001C2108A81494FEF7A1FA20216846FEF7AA
:101D30009DFA27482549C0E900145921C0E902410C
:101D4000046144618461FFF75DF908B1FEF70EFBA1
:101D50004FF480500F900FA91D48FFF7F1F908B11B
:101D6000FEF704FB1A48FFF797FB08B1FEF7FEFAEF
:101D7000139413A916481494FFF710F908B1FEF74D
:101D8000F5FA6020CDE908040A940B940C940D94A4
:101D9000002208A90E480E94FFF71BFB08B1FEF7BE
:101DA000E5FA00944FF40050CDE904400294019408
:101DB0000394694606480794FFF7C6F808B1FEF792
:101DC000D5FA0348FFF7DCFA16B010BD002C01402D
:101DD0002805002010B586B000241748009401940F
:101DE0000294039404944FF080410594016040F202
:101DF000CF21C0E9011442F20F71C0E903148461DC
:101E0000FFF700F908B1FEF7B1FA4FF480500090E7
:101E100069460948FFF794F908B1FEF7A7FA049458
:101E200004A905480594FFF7B9F8002801D0FEF78A
:101E30009DFA06B010BD0000700500200C4810B5DA
:101E40000A4901604FF496414160002181600C22F3
:101E5000C160C0E904128161C161FFF7F5FD00288E
:101E600003D0BDE81040FEF781BA10BD0038014034
:101E7000FC050020FEE7000070B501780F294CD169
:101E8000264D29704178062947D169708178A9705B
:101E9000C178E97001792971417969716C1E4179C4
:101EA000207851B101290ED0022913D0032918D06E
:101EB00004291DD0052922D028E038B3002000F0E5
:101EC00067FD002021E0012820D0012000F060FD06
:101ED00001201AE0022819D0022000F059FD02204A
:101EE00013E0032812D0032000F052FD03200CE081
:101EF00004280BD0042000F04BFD042005E0052849
:101F000004D0052000F044FD052020700621034880
:101F1000FEF72EFAA871000AE87170BD17050020BF
:101F2000FEE770477047FEF7E5BC30B58FB028215B
:101F30006846FEF79BF914210AA8FEF797F90121DC
:101F40000804CDE900100024029402250491CDE993
:101F500007504FF4E01009906846FEF74FFE08B1B5
:101F600072B6FEE70F20CDE90A054FF48060CDE997
:101F70000C4002210AA80E94FEF754FD002801D05F
:101F800072B6FEE70FB030BD704700000148FFF7A2
:101F900044B9000070050020F0B50268164B174CDC
:101FA000174D4FF08047984205D0B84203D0A04269
:101FB00001D0A84203D122F070064A683243984209
:101FC00005D0B84203D0A04201D0A84203D122F4E8
:101FD0004074CA6822434C6922F0800222430260A6
:101FE0008A68C2620A688262984201D10969016303
:101FF00001214161F0BD0000002C014000040040BF
:102000000008004010B501F01F030121046A994047
:102010008C430462016A9A401143016210BD10B5FD
:10202000446A0121626A824205D121778069F8B948
:1020300084F83E101CE0A26A824206D10222227776
:102040008069A8B984F83F1012E0E26A824206D1A2
:1020500004222277806958B984F8401008E0226B86
:10206000824205D108222277806908B984F841109C
:102070002046FFF73FFA0020207710BD10B5446AD4
:10208000616A814201D101200DE0A16A814201D142
:10209000022008E0E16A814201D1042003E0216BC3
:1020A000814201D1082020772046FFF729FA00203D
:1020B000207710BD10B5446A0121626A824203D1C3
:1020C000217784F83E1019E0A26A824204D10220EE
:1020D000207784F83F1011E0E26A824204D10420A4
:1020E000207784F8401009E0226B824204D1082056
:1020F000207784F8411001E084F83D102046FFF776
:102100008AF80020207710BD10B5846842EA0322C7
:1021100024F47F440A432243826010BD826822F087
:1021200070020A4342F007018160704730B5026ACD
:1021300022F001020262026A4368846924F0730596
:102140000C682C4322F002058A682A430A4DA842F3
:102150000BD122F00805CA6823F440732A434D6965
:1021600022F004021D438B692B434360846149685C
:102170004163026230BD0000002C014030B5026AAC
:1021800022F010020262026A436884690D6824F436
:10219000E64444EA05248D6822F0200242EA051252
:1021A0000B4DA8420ED1CD6822F0800242EA051202
:1021B0004D6923F4406343EA85038D6922F04002B0
:1021C00043EA85034360846149688163026230BDEC
:1021D000002C014030B5026A22F480720262036A68
:1021E0004268C46923F4007324F073050C682C431F
:1021F0008D6843EA05230C4DA8420ED1CD6823F427
:10220000006343EA05234D6922F4405242EA051275
:102210008D6923F4806342EA05124260C461496813
:10222000C163036230BD0000002C014030B5026A7A
:1022300022F480520262046A4268C3690D6823F482
:10224000E64343EA05238D6824F4005444EA053448
:10225000064DA84204D14D6922F4804242EA85121B
:102260004260C36149680164046230BD002C0140D2
:1022700010B5036A046A24F001040462846924F03E
:10228000F00444EA021423F00A020A438461026261
:1022900010BD10B5036A23F0100303628369046A5A
:1022A00023F4704343EA023224F0A00343EA01110D
:1022B0008261016210BD10B5406A0021C185C184F0
:1022C000FFF7BAFA10BD10B5406A0021C18520227F
:1022D00080F83E200163FFF775FA10BD0168CA68F7
:1022E00022F49072CA6001684A6922F001024A61D0
:1022F000016B012904D10168CA6822F01002CA608A
:10230000202180F83E1000210163704708B590F845
:102310003E10222901D0022008BD82684FF480536C
:102320009A4201D1016921B1816A9A421BD04AB116
:102330000AE00268816A5268C2F308020A80816A70
:10234000891C08E0026972B10268526802F07F02DB
:102350000A70816A491C8162C18D491E0904090CF9
:10236000C18503D019E002685268F1E70168CA68C4
:1023700022F02002CA600168CA6822F48072CA6032
:1023800001684A6922F001024A61202180F83E106A
:10239000016B012903D0FFF7DFFB002008BD0021FE
:1023A00001630168CA6822F01002CA6001680A6805
:1023B000D20602D50A6849680091818DFFF701FABB
:1023C000EBE7000070B5044600680169E26821F49B
:1023D0004051114301612169A068084361690843C4
:1023E0002168CA6841F20C639A430243CA602068BC
:1023F0004169A26921F44071114341611E4920687D
:10240000884202D1FEF7B4FB01E0FEF7A1FB00EB2E
:10241000C00101EB0012606864218000B2FBF0F3A0
:10242000B3FBF1F36FF018067343B2FBF0F5B2FBA8
:10243000F0F605EB8305322303EB0515B5FBF1F54B
:10244000B6FBF1F605F0F00505EB0615B2FBF0F66C
:10245000B2FBF0F0B0FBF1F06FF01802504306EB66
:10246000800003EB0010B0FBF1F0216800F00F00DA
:102470002844886070BD0000003801408162828578
:10248000C28500210164222280F83E2080F83C10A1
:102490000168CA6842F48072CA6001684A6942F001
:1024A00001024A610068C16841F02001C16000205A
:1024B00070472DE9F041984617460E460446069DA2
:1024C0001DE0681C1BD02DB1FEF70EFAA0EB080032
:1024D000A84214D92068C16821F4D071C160206875
:1024E000416921F001014161202084F83D0084F818
:1024F0003E00002084F83C000320BDE8F081206805
:10250000006836EA000004D00020B842D9D000208C
:10251000F3E70120F9E700000148FFF78FB9000059
:10252000FC050020FEE70907090E002804DB00F186
:10253000E02080F80014704700F00F0000F1E02068
:1025400080F8141D70470000FEF7DCF9FFF7EDFC82
:10255000FFF790FBFFF778FBFFF7DAFBFFF76EFC66
:10256000FFF738FC00224FF400611C48FEF7B6F973
:102570001B4E4FF40055002229463046FEF7AEF9B7
:1025800000F086F800231A468021012000F04AFA64
:102590004FF4FA70FEF798F800F03DF81148FFF795
:1025A00013F9012210490F48FFF7C0FA0F48FEF750
:1025B0009BFD0D4C0027A41E6078042805D0401C0C
:1025C00060706420FEF780F8F6E729463046FEF793
:1025D0007DF900F0E3F96770F3E7000000080140BF
:1025E00000100140FC0500200200002070050020C2
:1025F00030B415461C46029AC30702D001EB001303
:1026000004E0C1F10F0101EB001083B2214628461E
:1026100030BC00F057B800B5ADB00020289029902C
:102620002A902B90249025902690279023902090FC
:10263000219022901E901F901C901D9019901A902E
:102640001B90189014901590169017901090119060
:10265000129013900F900C900D900E900A900B908A
:102660000023089009900590069007900490009030
:102670000190029003901A461946184600F078F827
:1026800000F0E6F82DB05DF804EB00F00FB80000A4
:10269000302005491E2341F6300200BF21F81030DA
:1026A000401C9042FADB70474006002041F63003A0
:1026B000024A00210248FEF725BF00004006002024
:1026C00028050020F8B50024ADF8004001243C2680
:1026D00003EB4303254D1E2742E000BFBDF800C0B9
:1026E000CCF1070E04FA0EFC1CEA000FBDF800C086
:1026F0000CEBC30C05EB4C0C02D0ACF8706001E0A5
:10270000ACF87070BDF800C0CCF1070E04FA0EFEF4
:102710001EEA010FBDF800E00EEBC30E05EB4E0EF6
:1027200002D0AEF8606001E0AEF86070BDF800E085
:10273000CEF1070E04FA0EFC1CEA020FBDF800C031
:102740000CEBC30C05EB4C0C02D0ACF8806001E044
:10275000ACF88070BDF800C00CF1010CADF800C001
:10276000BDF800C0BCF1080FB8D3F8BD400600208A
:102770002DE9F04F354CDDE92965DDE90BB8DDE9E0
:1027800009A9DDF878E0DDF834C01B9F04F8010BDF
:1027900004F8011B04F8022B04F8013C04F801AB17
:1027A00004F8019B04F803BB04F8028C04F801CC84
:1027B0000E9820700F9860701098A0701198E070BB
:1027C00012982071139860711498A0711598E07197
:1027D00016982072179860721898A0721998E07273
:1027E0001A98207367731C98A0731D98E07384F87F
:1027F00010E01F9860742098A0742198E0742298CB
:102800002075239860752498A0752598E075269802
:102810002076279860762898A076E67604F81C5FE4
:102820002B9860702C98A0702D98E0702E982071D5
:102830002F9860713098A0713198E07132982072B1
:10284000339860723498A072BDE8F08FA0360020F3
:102850002DE9F04F00254D4C012602274FF00308CB
:102860004FF004094FF0050A4FF0060B2B01A27838
:1028700061782078FFF726FF06EB0513627921794E
:10288000E078FFF71FFF07EB0513227AE179A079C3
:10289000FFF718FF08EB0513E27AA17A607AFFF7D9
:1028A00011FF09EB0513A27B617B207BFFF70AFF79
:1028B0000AEB0513627C217CE07BFFF703FF0BEB47
:1028C0000513227DE17CA07CFFF7FCFE072000EBD6
:1028D0000513E27DA17D607DFFF7F4FE082000EB8B
:1028E0000513A27E617E207EFFF7ECFE092000EB3F
:1028F0000513627F217FE07EFFF7E4FE0A2000EBF4
:10290000051394F82020E17FA07FFFF7DBFE0B206A
:1029100000EB051394F8232094F8221094F821007A
:10292000FFF7D0FE0C2000EB051394F8262094F856
:10293000251094F82400FFF7C5FE0D2000EB0513C9
:1029400094F8292094F8281094F82700FFF7BAFE8D
:102950000E2000EB051394F82C2094F82B1094F81B
:102960002A00FFF7AFFE0F2000EB051394F82F208D
:1029700094F82E1094F82D00FFF7A4FE6D1CEDB214
:10298000102DFFF473AFBDE8F08F0000A0360020DB
:10299000014948707047000014000020204830B4FE
:1029A00001464478002201230978062C36D2DFE85C
:1029B00004F003070F171F27012923D1027022E01B
:1029C00001291FD10270002380211A46012022E034
:1029D000012917D1027000238022194602201AE033
:1029E00001290FD10270502200231146032012E06A
:1029F000012907D1027050220023114604200AE069
:102A0000012903D0037030BCFFF705BE02705022CD
:102A100000231146052030BC00F004B830BC7047DC
:102A2000140000202DE9F8431D46904689460528EC
:102A30000DD0042821D0032835D0022849D0012800
:102A400056D0002866D1BDE8F843FFF7E4BD324F09
:102A50000026002404EB0610385C012806D1E1B200
:102A6000F0B243464A460095FFF7C2FD641C102CA5
:102A7000F0DB761C102EECDB48E0284F002600240B
:102A800004EB0610385C012806D1E1B2F0B24346EF
:102A90004A460095FFF7ACFD641C102CF0DB761C59
:102AA000102EECDB32E01E4F0026002404EB061053
:102AB000385C012806D1E1B2F0B243464A4600959F
:102AC000FFF796FD641C102CF0DB761C102EECDB5F
:102AD0001CE0144E0024305D012805D1A3B22A4623
:102AE00041464846FFF7EEFD641CFF2CF3DD0DE088
:102AF0000D4E0024305D012805D1A3B22A4641467F
:102B00004846FFF7DFFD641CFF2CF3DDBDE8F8430A
:102B1000FFF7CCBDBDE8F8831604002016030020A3
:102B20001602002016010020160000200000000000
:102B3000000000000102030406070809000000006D
:102B40000102030400C1814001C0804101C08041F5
:102B500000C1814001C0804100C1814000C181406D
:102B600001C0804101C0804100C1814000C181405D
:102B700001C0804100C1814001C0804101C080414D
:102B800000C1814001C0804100C1814000C181403D
:102B900001C0804100C1814001C0804101C080412D
:102BA00000C1814000C1814001C0804101C080411D
:102BB00000C1814001C0804100C1814000C181400D
:102BC00001C0804101C0804100C1814000C18140FD
:102BD00001C0804100C1814001C0804101C08041ED
:102BE00000C1814000C1814001C0804101C08041DD
:102BF00000C1814001C0804100C1814000C18140CD
:102C000001C0804100C1814001C0804101C08041BC
:102C100000C1814001C0804100C1814000C18140AC
:102C200001C0804101C0804100C1814000C181409C
:102C300001C0804100C1814001C0804101C080418C
:102C400000C1814000C0C101C30302C2C60607C75C
:102C500005C5C404CC0C0DCD0FCFCE0E0ACACB0BCC
:102C6000C90908C8D81819D91BDBDA1A1EDEDF1FFC
:102C7000DD1D1CDC14D4D515D71716D6D21213D3EC
:102C800011D1D010F03031F133F3F23236F6F7379C
:102C9000F53534F43CFCFD3DFF3F3EFEFA3A3BFB8C
:102CA00039F9F83828E8E929EB2B2AEAEE2E2FEF3C
:102CB0002DEDEC2CE42425E527E7E62622E2E323AC
:102CC000E12120E0A06061A163A3A26266A6A767DC
:102CD000A56564A46CACAD6DAF6F6EAEAA6A6BAB4C
:102CE00069A9A86878B8B979BB7B7ABABE7E7FBF7C
:102CF0007DBDBC7CB47475B577B7B67672B2B3736C
:102D0000B17170B05090915193535292965657971B
:102D1000559594549C5C5D9D5F9F9E5E5A9A9B5B0B
:102D200099595898884849894B8B8A4A4E8E8F4FBB
:102D30008D4D4C8C4484854587474686824243832B
:102D400041818040642D000800000020280500001B
:102D500028010008002E000828050020083800007F
:102D6000840100084132018210032524F42A013530
:102D7000990A6A0111690959087918490A890F39AC
:102D80000CA90F4911C964F91FC93FF95FF97F996F
:102D9000180910BA0131D93B094FA0890511490A18
:102DA000491109476099C599B9C9D5014779AD89D4
:102DB00090B9B169078920B99F4930B910E9200954
:102DC000113009117099F9016D0910F0391039921B
:102DD000A9B7D91069144930890F99F0B9F7690F6B
:102DE000A960B9107947016F59802908E9A0091530
:102DF000F0E910593A7940092130B960C9800140A1
:04000005080000ED02
:00000001FF
